:020000040800F2
:10000000005000203D280008392600083F2600083F
:10001000452600084B260008512600080000000075
:10002000000000000000000000000000572600084B
:1000300063260008000000006F2600087B260008E9
:1000400085280008852800088528000885280008DC
:1000500085280008852800088528000885280008CC
:1000600085280008852800088528000885280008BC
:1000700085280008852800088528000885280008AC
:10008000852800088528000885280008852800089C
:10009000852800088528000885280008852800088C
:1000A000852800088528000885280008852800087C
:1000B000852800088528000885280008852800086C
:1000C000852800088528000885280008852800085C
:1000D0008528000889260008852800089D26000834
:1000E00085280008852800088528000800000000F1
:1000F0000000000000000000000000000000000000
:0C01000000000000000000005FF808F1A3
:1001100010B5054C237833B9044B13B10448AFF341
:1001200000800123237010BDE801002000000000C2
:100130008490000808B5034B1BB103490348AFF393
:10014000008008BD00000000EC0100208490000841
:10015000034613F8012B002AFBD1181A0138704707
:1001600081F0004102E000BF83F0004330B54FEA68
:1001700041044FEA430594EA050F08BF90EA020FD5
:100180001FBF54EA000C55EA020C7FEA645C7FEA68
:10019000655C00F0E2804FEA5454D4EB5555B8BF8B
:1001A0006D420CDD2C4480EA020281EA030382EAFC
:1001B000000083EA010180EA020281EA0303362D8E
:1001C00088BF30BD11F0004F4FEA01314FF4801C61
:1001D0004CEA113102D0404261EB410113F0004F73
:1001E0004FEA03334CEA133302D0524263EB43032A
:1001F00094EA050F00F0A780A4F10104D5F1200EC8
:100200000DDB02FA0EFC22FA05F2801841F1000122
:1002100003FA0EF2801843FA05F359410EE0A5F1F6
:1002200020050EF1200E012A03FA0EFC28BF4CF027
:10023000020C43FA05F3C01851EBE37101F00045DD
:1002400007D54FF0000EDCF1000C7EEB00006EEBEA
:100250000101B1F5801F1BD3B1F5001F0CD3490874
:100260005FEA30004FEA3C0C04F101044FEA4452CB
:1002700012F5800F80F09A80BCF1004F08BF5FEA52
:10028000500C50F1000041EB045141EA050130BD32
:100290005FEA4C0C404141EB0101013C28BFB1F544
:1002A000801FE9D291F0000F04BF01460020B1FA8F
:1002B00081F308BF2033A3F10B03B3F120020CDA62
:1002C0000C3208DD02F1140CC2F10C0201FA0CF040
:1002D00021FA02F10CE002F11402D8BFC2F1200CA5
:1002E00001FA02F120FA0CFCDCBF41EA0C0190405B
:1002F000E41AA2BF01EB0451294330BD6FEA0404A4
:100300001F3C1CDA0C340EDC04F11404C4F120028E
:1003100020FA04F001FA02F340EA030021FA04F3A0
:1003200045EA030130BDC4F10C04C4F1200220FAF7
:1003300002F001FA04F340EA0300294630BD21FA35
:1003400004F0294630BD94F0000F83F4801306BFFB
:1003500081F480110134013D4EE77FEA645C18BFEF
:100360007FEA655C29D094EA050F08BF90EA020F86
:1003700005D054EA000C04BF1946104630BD91EA7E
:10038000030F1EBF0021002030BD5FEA545C05D181
:100390004000494128BF41F0004130BD14F58004C0
:1003A0003CBF01F5801130BD01F0004545F0FE4134
:1003B00041F470014FF0000030BD7FEA645C1ABF69
:1003C000194610467FEA655C1CBF0B46024650EAA0
:1003D000013406BF52EA033591EA030F41F40021CC
:1003E00030BD00BF90F0000F04BF0021704730B552
:1003F0004FF4806404F132044FF000054FF0000127
:1004000050E700BF90F0000F04BF0021704730B5E7
:100410004FF4806404F1320410F0004548BF4042BC
:100420004FF000013EE700BF42004FEAE2014FEA11
:1004300031014FEA02701FBF12F07F4393F07F4FEC
:1004400081F06051704732F07F4208BF704793F0EF
:100450007F4F04BF41F40021704730B54FF4607402
:1004600001F0004521F000411CE700BF50EA010205
:1004700008BF704730B54FF000050AE050EA0102AE
:1004800008BF704730B511F0004502D5404261EB1E
:1004900041014FF4806404F132045FEA915C3FF45F
:1004A000D8AE4FF003025FEADC0C18BF03325FEAFC
:1004B000DC0C18BF033202EBDC02C2F1200300FAAD
:1004C00003FC20FA02F001FA03FE40EA0E0021FAD2
:1004D00002F11444BDE600BF70B54FF0FF0C4CF4C0
:1004E000E06C1CEA11541DBF1CEA135594EA0C0F72
:1004F00095EA0C0F00F0DEF82C4481EA030621EAAD
:100500004C5123EA4C5350EA013518BF52EA0335E7
:1005100041F4801143F4801338D0A0FB02CE4FF099
:100520000005E1FB02E506F00042E0FB03E54FF0C9
:100530000006E1FB03569CF0000F18BF4EF0010EC1
:10054000A4F1FF04B6F5007F64F5407404D25FEABD
:100550004E0E6D4146EB060642EAC62141EA555170
:100560004FEAC52040EA5E504FEACE2EB4F1FD0CB2
:1005700088BFBCF5E06F1ED8BEF1004F08BF5FEA30
:10058000500E50F1000041EB045170BD06F00046E2
:1005900046EA010140EA020081EA0301B4EB5C048F
:1005A000C2BFD4EB0C0541EA045170BD41F4801187
:1005B0004FF0000E013C00F3AB8014F1360FDEBFAC
:1005C000002001F0004170BDC4F10004203C35DA88
:1005D0000C341BDC04F11404C4F1200500FA05F30B
:1005E00020FA04F001FA05F240EA020001F00042AC
:1005F00021F0004110EBD37021FA04F642EB060122
:100600005EEA430E08BF20EAD37070BDC4F10C044B
:10061000C4F1200500FA04F320FA05F001FA04F20F
:1006200040EA020001F0004110EBD37041F10001FB
:100630005EEA430E08BF20EAD37070BDC4F1200506
:1006400000FA05F24EEA020E20FA04F301FA05F26E
:1006500043EA020321FA04F001F0004121FA04F216
:1006600020EA020000EBD3705EEA430E08BF20EAE6
:10067000D37070BD94F0000F0FD101F00046400020
:1006800041EB010111F4801F08BF013CF7D041EAA2
:10069000060195F0000F18BF704703F000465200A6
:1006A00043EB030313F4801F08BF013DF7D043EA77
:1006B0000603704794EA0C0F0CEA135518BF95EA2D
:1006C0000C0F0CD050EA410618BF52EA4306D1D1B4
:1006D00081EA030101F000414FF0000070BD50EAD3
:1006E000410606BF1046194652EA430619D094EA5D
:1006F0000C0F02D150EA013613D195EA0C0F05D147
:1007000052EA03361CBF104619460AD181EA03019A
:1007100001F0004141F0FE4141F470014FF0000052
:1007200070BD41F0FE4141F4780170BD70B54FF0ED
:10073000FF0C4CF4E06C1CEA11541DBF1CEA13556D
:1007400094EA0C0F95EA0C0F00F0A7F8A4EB05044F
:1007500081EA030E52EA03354FEA013100F0888046
:100760004FEA03334FF0805545EA131343EA12630F
:100770004FEA022245EA111545EA10654FEA0026C4
:100780000EF000419D4208BF964244F1FD0404F57D
:10079000407402D25B084FEA3202B61A65EB0305D9
:1007A0005B084FEA32024FF480104FF4002CB6EB96
:1007B000020E75EB030E22BFB61A754640EA0C0016
:1007C0005B084FEA3202B6EB020E75EB030E22BF56
:1007D000B61A754640EA5C005B084FEA3202B6EB97
:1007E000020E75EB030E22BFB61A754640EA9C0056
:1007F0005B084FEA3202B6EB020E75EB030E22BF26
:10080000B61A754640EADC0055EA060E18D04FEAE3
:10081000051545EA16754FEA06164FEAC30343EA83
:1008200052734FEAC2025FEA1C1CC0D111F4801F50
:100830000BD141EA00014FF000004FF0004CB6E749
:1008400011F4801F04BF01430020B4F1FD0C88BFE8
:10085000BCF5E06F3FF6AFAEB5EB030C04BFB6EBF3
:10086000020C5FEA500C50F1000041EB045170BDE6
:100870000EF0004E4EEA113114EB5C04C2BFD4EB13
:100880000C0541EA045170BD41F480114FF0000E97
:10089000013C90E645EA060E8DE60CEA135594EA13
:1008A0000C0F08BF95EA0C0F3FF43BAF94EA0C0F16
:1008B0000AD150EA01347FF434AF95EA0C0F7FF48B
:1008C00025AF104619462CE795EA0C0F06D152EADF
:1008D00003353FF4FDAE1046194622E750EA4106C3
:1008E00018BF52EA43067FF4C5AE50EA41047FF4D4
:1008F0000DAF52EA43057FF4EBAE12E74FF0FF3C39
:1009000006E000BF4FF0010C02E000BF4FF0010C09
:100910004DF804CD4FEA410C7FEA6C5C4FEA430C82
:1009200018BF7FEA6C5C1BD001B050EA410C0CBFD1
:1009300052EA430C91EA030F02BF90EA020F002033
:10094000704710F1000F91EA030F58BF994208BF9A
:1009500090422CBFD8176FEAE37040F00100704757
:100960004FEA410C7FEA6C5C02D150EA013C07D1AE
:100970004FEA430C7FEA6C5CD6D152EA033CD3D0F9
:100980005DF8040B704700BF8446104662468C46F3
:100990001946634600E000BF01B5FFF7B7FF002826
:1009A00048BF10F1000F01BD4DF808EDFFF7F4FF4F
:1009B0000CBF012000205DF808FB00BF4DF808EDDA
:1009C000FFF7EAFF34BF012000205DF808FB00BFFD
:1009D0004DF808EDFFF7E0FF94BF012000205DF81F
:1009E00008FB00BF4DF808EDFFF7CEFF94BF0120D4
:1009F00000205DF808FB00BF4DF808EDFFF7C4FFCD
:100A000034BF012000205DF808FB00BF4FEA410C15
:100A10007FEA6C5C02D150EA013C0AD14FEA430CF8
:100A20007FEA6C5C02D152EA033C02D14FF0000035
:100A300070474FF0010070474FEA410212F5001273
:100A400015D211D56FF47873B3EB625212D94FEA15
:100A5000C12343F0004343EA505311F0004F23FAFF
:100A600002F018BF404270474FF00000704750EA54
:100A7000013005D111F0004008BF6FF00040704711
:100A80004FF00000704700BF4FEA4102B2F1E0436F
:100A900024BFB3F5001CDCF1FE5C0DD901F0004C65
:100AA0004FEAC0024CEA5070B2F1004F40EB8300B5
:100AB00008BF20F00100704711F0804F21D113F1E1
:100AC0003872BCBF01F00040704741F480114FEA1A
:100AD0005252C2F11802C2F1200C10FA0CF320FAA3
:100AE00002F018BF40F001004FEAC1234FEAD323C0
:100AF00003FA0CFC40EA0C0023FA02F34FEA43032A
:100B0000CCE77FEA625307D150EA01331EBF4FF0B2
:100B1000FE4040F44000704701F0004040F0FE40CD
:100B200040F40000704700BF80F0004002E000BFCA
:100B300081F0004142001FBF5FEA410392EA030FC8
:100B40007FEA226C7FEA236C6AD04FEA1262D2EB12
:100B50001363C1BFD218414048404140B8BF5B4217
:100B6000192B88BF704710F0004F40F4000020F0B0
:100B70007F4018BF404211F0004F41F4000121F0C6
:100B80007F4118BF494292EA030F3FD0A2F1010210
:100B900041FA03FC10EB0C00C3F1200301FA03F14E
:100BA00000F0004302D5494260EB4000B0F5000F71
:100BB00013D3B0F1807F06D340084FEA310102F130
:100BC0000102FE2A51D2B1F1004F40EBC25008BFE2
:100BD00020F0010040EA03007047490040EB0000AC
:100BE000013A28BFB0F5000FEDD2B0FA80FCACF1AD
:100BF000080CB2EB0C0200FA0CF0AABF00EBC250DA
:100C000052421843BCBFD0401843704792F0000FC7
:100C100081F4000106BF80F400000132013BB5E71A
:100C20004FEA41037FEA226C18BF7FEA236C21D090
:100C300092EA030F04D092F0000F08BF08467047F5
:100C400090EA010F1CBF0020704712F07F4F04D1C3
:100C5000400028BF40F00040704712F100723CBFD6
:100C600000F50000704700F0004343F0FE4040F400
:100C7000000070477FEA226216BF08467FEA2363BE
:100C80000146420206BF5FEA412390EA010F40F4A9
:100C9000800070474FF0000304E000BF10F00043F5
:100CA00048BF40425FEA000C08BF704743F09643DC
:100CB00001464FF000001CE050EA010208BF7047F7
:100CC0004FF000030AE000BF50EA010208BF70477E
:100CD00011F0004302D5404261EB41015FEA010C93
:100CE00002BF84460146002043F0B64308BFA3F18B
:100CF0008053A3F50003BCFA8CF2083AA3EBC2536D
:100D000010DB01FA02FC634400FA02FCC2F120028B
:100D1000BCF1004F20FA02F243EB020008BF20F0C2
:100D20000100704702F1200201FA02FCC2F1200228
:100D300050EA4C0021FA02F243EB020008BF20EA1D
:100D4000DC7070474FF0FF0C1CEAD0521EBF1CEA4B
:100D5000D15392EA0C0F93EA0C0F6FD01A4480EA39
:100D6000010C400218BF5FEA41211ED04FF0006322
:100D700043EA501043EA5111A0FB01310CF000404E
:100D8000B1F5000F3EBF490041EAD3715B0040EA74
:100D9000010062F17F02FD2A1DD8B3F1004F40EB44
:100DA000C25008BF20F00100704790F0000F0CF017
:100DB000004C08BF49024CEA502040EA51207F3ADB
:100DC000C2BFD2F1FF0340EAC250704740F40000B6
:100DD0004FF00003013A5DDC12F1190FDCBF00F0A7
:100DE00000407047C2F10002410021FA02F1C2F155
:100DF000200200FA02FC5FEA310040F1000053EAF1
:100E00004C0308BF20EADC70704792F0000F00F03E
:100E1000004C02BF400010F4000F013AF9D040EA44
:100E20000C0093F0000F01F0004C02BF490011F4D8
:100E3000000F013BF9D041EA0C018FE70CEAD153D6
:100E400092EA0C0F18BF93EA0C0F0AD030F0004C56
:100E500018BF31F0004CD8D180EA010000F000400A
:100E6000704790F0000F17BF90F0004F084691F0C8
:100E7000000F91F0004F14D092EA0C0F01D1420202
:100E80000FD193EA0C0F03D14B0218BF084608D1CB
:100E900080EA010000F0004040F0FE4040F4000015
:100EA000704740F0FE4040F4400070474FF0FF0CA8
:100EB0001CEAD0521EBF1CEAD15392EA0C0F93EAEF
:100EC0000C0F69D0A2EB030280EA010C49024FEA41
:100ED000402037D04FF0805343EA111143EA1013FA
:100EE0000CF000408B4238BF5B0042F17D024FF4B2
:100EF000000C8B4224BF5B1A40EA0C00B3EB510F8D
:100F000024BFA3EB510340EA5C00B3EB910F24BF75
:100F1000A3EB910340EA9C00B3EBD10F24BFA3EBFA
:100F2000D10340EADC001B0118BF5FEA1C1CE0D1C2
:100F3000FD2A3FF650AF8B4240EBC25008BF20F075
:100F4000010070470CF0004C4CEA50207F32C2BFC9
:100F5000D2F1FF0340EAC250704740F400004FF066
:100F60000003013A37E792F0000F00F0004C02BF97
:100F7000400010F4000F013AF9D040EA0C0093F061
:100F8000000F01F0004C02BF490011F4000F013BBB
:100F9000F9D041EA0C0195E70CEAD15392EA0C0F23
:100FA00008D142027FF47DAF93EA0C0F7FF470AF5B
:100FB000084676E793EA0C0F04D14B023FF44CAF9E
:100FC00008466EE730F0004C18BF31F0004CCAD133
:100FD00030F000427FF45CAF31F000437FF43CAF6F
:100FE0005FE700BF4FEA4002B2F1FE4F0FD34FF070
:100FF0009E03B3EB12620DD94FEA002343F0004386
:1010000010F0004F23FA02F018BF404270474FF033
:101010000000704712F1610F01D1420205D110F0BA
:10102000004008BF6FF0004070474FF0000070476D
:1010300080B598B000AF7860396000F0FBF8664981
:10104000664800F0E1FA6649664800F0DDFA0023E0
:10105000FB650AE06249644800F0D6FA4FF47A7002
:1010600001F074FCFB6D0133FB65FB6D042BF1DDBE
:10107000594800F047F958495C4800F0C5FA00BFEC
:1010800055495B4800F056FB0346002BF8D0544905
:10109000584800F0B9FA504800F034F94E49564823
:1010A00000F0B2FA00BF4C49514800F043FB034640
:1010B000002BF8D04A49514800F0A6FA464800F003
:1010C00021F947494E4800F09FFA07F108003B68B4
:1010D0007A684C4904F0D0FD07F108033E491846F0
:1010E00000F092FA00BF3C49414800F023FB034660
:1010F000002BF8D007F108037A684349184604F03A
:10110000BBFD07F108033649184600F07DFA324866
:1011100000F0F8F830493D4800F076FA00BF2E495B
:101120003B4800F007FB0346002BF8D000BF2A4ADB
:101130003849394800F080FA0346002BF7D000BF49
:1011400025492B4800F0F6FA0346002BF8D0314829
:10115000FEF7FEFF0346BB65BB6D013B2D4A002138
:10116000D15407F108032B4A2C49184604F084FD9A
:1011700007F108031A49184600F046FA164800F02D
:10118000C1F81549264800F03FFA00BF1249184837
:1011900000F0D0FA0346002BF8D01149214800F0A6
:1011A00033FA0D4800F0AEF80B491F4800F02CFA56
:1011B00000BF09490E4800F0BDFA0346002BF8D0E5
:1011C00007491A4800F020FA0549194800F01CFAAE
:1011D00000BF6037BD4680BDE40A0020A49400082B
:1011E0002C0B0020B0940008BC940008C0940008A8
:1011F000C8940008D0940008DC940008EC9400081F
:10120000FC94000820950008389500084C950008CB
:101210005895000804020020689500086C950008A5
:101220007C9500088C9500089C950008B0950008F6
:10123000C495000880B400AF174B184A1A60184BC9
:10124000184A1A60184B194A1A60194B194A1A6041
:10125000194B1B685A69184B1B6842F001025A610E
:10126000164B1B685A69154B1B6842F001025A6104
:10127000114B1B68DA68104B1B6842F02002DA60E1
:101280000E4B1B68DA680D4B1B6842F02002DA60D7
:1012900000BFBD4680BC7047380A002018020020FD
:1012A0003C0A002020040020400A002028060020DC
:1012B000440A002030080020E40A00202C0B002003
:1012C00080B485B000AF03463960FB713B68D3F84A
:1012D00000320133C3F30803FB603B68D3F80422F8
:1012E000FB689A4209D03B68D3F800323A68F97932
:1012F000D154FA683B68C3F8002200BF1437BD46DA
:1013000080BC704780B582B000AF78607B68124ABD
:1013100093420CD1114B1B684FF400720021184608
:1013200004F00DFD0D4B1B680022C3F800227B6802
:101330000B4A93420CD10B4B1B684FF400720021F7
:10134000184604F0FCFC074B1B680022C3F800227F
:1013500000BF0837BD4680BDE40A0020380A0020DF
:101360002C0B0020400A002080B483B000AF7860CE
:101370007B681C4A934214D11B4B1B68D3F8002294
:10138000194B1B68D3F804329A4202D14FF0FF3355
:1013900022E0154B1A68144B1B68D3F80432D35C57
:1013A0001AE07B68114A934214D1114B1B68D3F8A1
:1013B00000220F4B1B68D3F804329A4202D14FF03F
:1013C000FF3309E00A4B1A68094B1B68D3F8043253
:1013D000D35C01E04FF0FF3318460C37BD4680BCAC
:1013E000704700BFE40A0020380A00202C0B0020C0
:1013F000400A002080B485B000AF78607B68294A3D
:10140000934221D1284B1B68D3F80022264B1B683E
:10141000D3F804329A4202D14FF0FF333CE0224B22
:101420001A68214B1B68D3F80432D35CBB731E4B84
:101430001B68D3F804325A1C1B4B1B68C2F308020A
:10144000C3F80422BB7B27E07B68184A934221D172
:10145000174B1B68D3F80022154B1B68D3F80432D6
:101460009A4202D14FF0FF3316E0114B1A68104B2D
:101470001B68D3F80432D35CFB730D4B1B68D3F8A5
:1014800004325A1C0A4B1B68C2F30802C3F8042238
:10149000FB7B01E04FF0FF3318461437BD4680BC9C
:1014A000704700BFE40A0020380A00202C0B0020FF
:1014B000400A002080B485B000AF786039607B6856
:1014C000002B54DB3B682C4A934226D12B4B1B68E4
:1014D000D3F800320133C3F30803BB6000BF274BCE
:1014E0001B68D3F80422BB689A42F8D0234B1A68D1
:1014F000224B1B68D3F800327968C9B2D1541F4B14
:101500001B68BA68C3F800221B4B1B68DA681A4BC9
:101510001B6842F08002DA6029E03B68184A934277
:1015200025D1184B1B68D3F800320133C3F30803ED
:10153000FB6000BF134B1B68D3F80422FB689A4280
:10154000F8D0104B1A680F4B1B68D3F8003279683B
:10155000C9B2D1540B4B1B68FA68C3F80022084B80
:101560001B68DA68064B1B6842F08002DA6000BF35
:101570001437BD4680BC7047E40A00203C0A0020B6
:101580002C0B0020440A002080B483B000AF7860A8
:101590007B68194A934211D1184B1B68D3F800326B
:1015A0009AB2164B1B68D3F804329BB2D31A9BB283
:1015B00003F500739BB2C3F3080317E07B68104A7E
:1015C000934211D10F4B1B68D3F800329AB20D4BE6
:1015D0001B68D3F804329BB2D31A9BB203F5007395
:1015E0009BB2C3F3080301E04FF0FF3318460C37FA
:1015F000BD4680BC704700BFE40A0020380A0020C6
:101600002C0B0020400A002080B582B000AF78602B
:10161000396007E07B685A1C7A601B783968184685
:10162000FFF748FF7B681B78002BF3D100BF00BF9A
:101630000837BD4680BD000080B588B000AFF860B7
:10164000B9607A600023FB61F868FEF781FD03460C
:101650007B610023BB6100BF7868FFF795FF0346FD
:10166000002BF9D01FE0324B1968314B1B68D3F8BF
:101670000422BB69B86803448A5C1A702C4B1B684F
:10168000D3F804325A1C2A4B1B68C2F30802C3F871
:101690000422BB690133BB6100BF7868FFF774FFA8
:1016A0000346002BF9D07868FFF75EFE0146FB6920
:1016B000FA6813441B789942D5D11BE0FB690133CA
:1016C000FB617868FFF796FE0146BB695A1CBA6158
:1016D0001A46BB681344CAB21A70FA697B699A4207
:1016E00001D101231FE000BF7868FFF74DFF0346DB
:1016F000002BF9D07868FFF737FE0146FB69FA68DE
:1017000013441B789942D9D0FA697B699A4202D076
:101710000023FB619FE7FA697B699A4201D10123AB
:1017200001E04FF0FF3318462037BD4680BD00BFB3
:10173000380A002080B584B000AF7860396000239B
:10174000FB607868FEF704FD0346BB6000BF3868A5
:10175000FFF71AFF0346002BF9D03868FFF704FEA5
:101760000146FB687A6813441B7899421ED01E4BD1
:101770001B68D3F804325A1C1B4B1B68C2F30802C7
:10178000C3F80422E2E7FB680133FB603868FFF727
:1017900031FEFA68BB689A4201D101231FE000BF05
:1017A0003868FFF7F1FE0346002BF9D03868FFF7E1
:1017B000DBFD0146FB687A6813441B789942E2D04E
:1017C000FA68BB689A4202D00023FB60BEE7FA6861
:1017D000BB689A4201D1012301E04FF0FF33184664
:1017E0001037BD4680BD00BF380A002080B586B0E6
:1017F00000AF78607B681B681B687B617B681B6837
:10180000DB683B617B6903F02003002B23D03B693D
:1018100003F02003002B1ED07B681B681B687B68CD
:101820001B685B68FB737B683F4A934207D13F4B61
:101830001A68FB7B11461846FFF742FD6DE07B6896
:101840003B4A934269D13B4B1A68FB7B11461846D1
:10185000FFF736FD61E07B6903F08003002B5FD06A
:101860003B6903F08003002B5AD07B682E4A9342D9
:1018700027D1314BD3F800222F4BD3F804329A42B0
:1018800008D17B681B68DA687B681B6822F08002DD
:10189000DA6044E0284BD3F80432274AD35C7B73E8
:1018A000254BD3F804320133C3F30803224AC2F8AC
:1018B00004327B681B681B687B681B687A7B5A60F4
:1018C0002DE07B681A4A934229D11C4BD3F80022A1
:1018D0001A4BD3F804329A4208D17B681B68DA6845
:1018E0007B681B6822F08002DA6018E0134BD3F8A3
:1018F0000432124AD35CBB73104BD3F80432013369
:10190000C3F308030D4AC2F804327B681B681B68E6
:101910007B681B68BA7B5A6001E000BF00E000BF33
:101920001837BD4680BD00BFE40A0020380A0020F9
:101930002C0B0020400A002020040020300800204A
:1019400080B586B002AF0346FB71FB7923F00F032D
:10195000FB73FB791B01BB73FB7B43F00C03DBB216
:101960003B72FB7B43F00803DBB27B72BB7B43F033
:101970000C03DBB2BB72BB7B43F00803DBB2FB7230
:1019800007F108026423009304234E21034801F069
:1019900009FC00BF1037BD4680BD00BF480A0020CB
:1019A00080B586B002AF0346FB71FB7923F00F03CD
:1019B000FB73FB791B01BB73FB7B43F00D03DBB2B5
:1019C0003B72FB7B43F00903DBB27B72BB7B43F0D2
:1019D0000D03DBB2BB72BB7B43F00903DBB2FB72CE
:1019E00007F108026423009304234E21034801F009
:1019F000D9FB00BF1037BD4680BD00BF480A00209C
:101A000080B582B000AF8020FFF79AFF00237B6093
:101A100005E02020FFF7C4FF7B6801337B607B6813
:101A2000452BF6DD00BF00BF0837BD4680BD80B541
:101A300082B000AF786039607B68002B03D07B6890
:101A4000012B05D009E03B6843F080033B6004E0D4
:101A50003B6843F0C0033B6000BF3B68DBB2184605
:101A6000FFF76EFF00BF0837BD4680BD80B500AFF1
:101A7000322000F06BFF3020FFF762FF052000F0FE
:101A800065FF3020FFF75CFF012000F05FFF302092
:101A9000FFF756FF0A2000F059FF2020FFF750FF04
:101AA0000A2000F053FF2820FFF74AFF012000F032
:101AB0004DFF0820FFF744FF012000F047FF012001
:101AC000FFF73EFF012000F041FF012000F03EFF44
:101AD0000620FFF735FF012000F038FF0C20FFF74C
:101AE0002FFF00BF80BD80B582B000AF786006E0F8
:101AF0007B685A1C7A601B781846FFF751FF7B6899
:101B00001B78002BF4D100BF00BF0837BD4680BD55
:101B100080B586B004AF4FF47A730293012301932A
:101B2000FB1D009301237522D021234801F032FDD3
:101B3000FB79682B3BD10023BB714FF47A7302937E
:101B400001230193BB1D009301236B22D0211A486E
:101B500001F026FC0723BB714FF47A730293012333
:101B60000193BB1D009301231922D021124801F0DB
:101B700017FC0023BB714FF47A7302930123019386
:101B8000BB1D009301231C22D0210B4801F008FC4F
:101B90000023BB714FF47A73029301230193BB1DA1
:101BA000009301231B22D021034801F0F9FB00BF61
:101BB0000837BD4680BD00BF480A00200000000075
:101BC0002DE9B04386B004AF4FF47A730293062335
:101BD00001933B46009301233B22D021804801F032
:101BE000D9FC3B781B021AB27B781BB213431AB2A2
:101BF0007C4B1A80BB781B021AB2FB781BB21343D2
:101C00001AB2794B1A803B791B021AB27B791BB24C
:101C100013431AB2754B1A80724BB3F90030184651
:101C2000FFF73CF803464FF08D411846FFF73EF9A9
:101C300003461A466E4B1A606B4BB3F900301846D8
:101C4000FFF72CF803464FF08D411846FFF72EF9A9
:101C500003461A46674B1A60644BB3F900301846C6
:101C6000FFF71CF803464FF08D411846FFF71EF9A9
:101C700003461A46604B1A605D4B1B6883F00043B5
:101C80001846FEF7D1FB04460D465A4B1B68184612
:101C9000FEF7CAFB4FF000024FF0804306F03AF91E
:101CA00080468946544B1B681846FEF7BDFB4FF033
:101CB00000024FF0804306F02DF902460B464046E5
:101CC0004946FEF753FA02460B461046194606F0FF
:101CD00089F902460B4620462946FEF727FD0246B3
:101CE0000B461046194606F0A3F902460B4610466D
:101CF0001946FEF7C9FE034640491846FFF722F889
:101D000003461846FEF790FB33A3D3E90023FEF702
:101D10000DFD02460B4610461946FEF7B5FE03467A
:101D2000374A1360334B1B681846FEF77DFB0446A9
:101D30000D462F4B1B681846FEF776FB4FF000024E
:101D40004FF0804306F0E6F8804689462A4B1B6830
:101D50001846FEF769FB4FF000024FF0804306F093
:101D6000D9F802460B4640464946FEF7FFF90246BF
:101D70000B461046194606F035F902460B4620463A
:101D80002946FEF7D3FC02460B461046194606F0DC
:101D90004FF902460B4610461946FEF775FE0346FC
:101DA00016491846FEF7CEFF03461846FEF73CFBE1
:101DB00009A3D3E90023FEF7B9FC02460B461046FF
:101DC0001946FEF761FE03460E4A136000BF08374E
:101DD000BD46BDE8B08300BF894160E5D02209401F
:101DE000480A0020740B0020760B0020780B00209E
:101DF000800B0020840B0020880B0020000034435F
:101E0000980B00209C0B002080B586B004AF4FF4E7
:101E10007A730293062301933B46009301234322E6
:101E2000D021274801F0B6FB3B781B021AB27B7821
:101E30001BB213431AB2234B1A80BB781B021AB28F
:101E4000FB781BB213431AB21F4B1A803B791B025B
:101E50001AB27B791BB213431AB21C4B1A80194B6E
:101E6000B3F900301846FEF719FF03461849184623
:101E7000FFF71CF803461A46164B1A60124BB3F9CB
:101E800000301846FEF70AFF034611491846FFF7CF
:101E90000DF803461A46104B1A600C4BB3F900308C
:101EA0001846FEF7FBFE034609491846FEF7FEFFFB
:101EB00003461A46094B1A6000BF0837BD4680BD6D
:101EC000480A00207A0B00207C0B00207E0B0020AB
:101ED000000003438C0B0020900B0020940B00208B
:101EE00080B588B000AF00F0CFFC00F0F3F800F050
:101EF000FBF900F02BF900F0A3F900F055F900F020
:101F0000C9F9FFF7B3FDFFF703FE00210020FFF73B
:101F10008EFD6248FFF7E7FD4FF47A7000F016FD82
:101F2000FFF76EFD00210020FFF781FD5C48FFF701
:101F3000DAFD5C4802F038FE0023FB614FF47A734F
:101F4000BB6159495948FFF773F8FFF739FEFFF7AE
:101F50005BFFFFF755FD564B1B681846FEF764FA0A
:101F600002460B463846534903F086FE0021002006
:101F7000FFF75DFD3B461846FFF7B5FD4E4B1B686E
:101F80001846FEF751FA02460B463846494903F017
:101F900073FE06210020FFF74AFD3B461846FFF777
:101FA000A2FD464B1B681846FEF73EFA02460B465A
:101FB0003846404903F060FE0B210020FFF737FD53
:101FC0003B461846FFF78FFD3D4B1B681846FEF752
:101FD0002BFA02460B463846364903F04DFE0021E7
:101FE0000120FFF724FD3B461846FFF77CFDFA2051
:101FF00000F0ACFC00F0A0FC7861324B1B68002BB9
:1020000006D12F4B1B68304A13602E4B01221A60F9
:102010007A69FB69D11ABA6913469B001344994245
:1020200093D37B69FB61264B1B681846FEF7DAFFEA
:10203000034613F1460F88DB214B1B681846FEF759
:10204000D1FF0346462B80DC1F4B1B681846FEF76A
:10205000C9FF034613F1460FFFF677AF1A4B1B6813
:102060001846FEF7BFFF0346462B3FF76EAF01222F
:102070000221164800F020FF4FF40051144800F0F0
:1020800033FF104B00221A604FF47A7000F05EFCB0
:10209000002202210D4800F00FFF56E74C96000881
:1020A000589600089C0A0020609600086C9600086C
:1020B000800B002074960008840B0020880B002001
:1020C0009C0B0020A40B0020A00B00200008014066
:1020D0000010014080B590B000AF07F1180328222E
:1020E0000021184603F02BFE3B1D00221A605A60A7
:1020F0009A60DA601A610223BB610123BB6210237C
:10210000FB6200237B6307F11803184602F0ECF82A
:102110000346002B01D000F053F90F237B6000230E
:10212000BB600023FB6000233B6100237B613B1D00
:102130000021184602F05AFB0346002B01D000F0A4
:102140003FF900BF4037BD4680BD000080B500AFFD
:10215000124B134A1A60114B124A5A600F4B00225D
:102160009A600E4B0022DA600C4B4FF480421A61E9
:102170000A4B00225A61094B00229A61074B002248
:10218000DA61064B00221A62044800F0C7FE0346DB
:10219000002B01D000F014F900BF80BD480A0020D8
:1021A00000540040A086010080B586B000AF07F162
:1021B000080300221A605A609A60DA603B460022E7
:1021C0001A605A601D4B4FF080421A601B4B41F65B
:1021D0003F725A60194B00229A60184B6322DA60F2
:1021E000164B00221A61154B80229A61134802F0A7
:1021F0008BFC0346002B01D000F0E2F84FF4805333
:10220000BB6007F1080319460C4802F01FFD0346A6
:10221000002B01D000F0D4F800233B6000237B604A
:102220003B461946054802F0DDFE0346002B01D06F
:1022300000F0C6F800BF1837BD4680BD9C0A0020DC
:1022400080B500AF114B124A1A60104B4FF4E132C7
:102250005A600E4B00229A600C4B0022DA600B4B46
:1022600000221A61094B0C225A61084B00229A6124
:10227000064B0022DA61054802F012FF0346002BEC
:1022800001D000F09DF800BF80BD00BFE40A00202F
:102290000038014080B500AF114B124A1A60104B54
:1022A0004FF4E1325A600E4B00229A600C4B002230
:1022B000DA600B4B00221A61094B0C225A61084B61
:1022C00000229A61064B0022DA61054802F0E8FE1E
:1022D0000346002B01D000F073F800BF80BD00BFA3
:1022E0002C0B00200048004080B588B000AF07F1FB
:1022F000100300221A605A609A60DA602D4B9B69C5
:102300002C4A43F0100393612A4B9B6903F010039E
:10231000FB60FB68274B9B69264A43F020039361CF
:10232000244B9B6903F02003BB60BB68214B9B6976
:10233000204A43F0040393611E4B9B6903F004039E
:102340007B607B681B4B9B691A4A43F008039361CF
:10235000184B9B6903F008033B603B6800224FF475
:102360000051154800F0A8FD00224221134800F05A
:10237000A3FD4FF400533B6101237B610023BB614C
:102380000223FB6107F1100319460B4800F010FC13
:1023900042233B6101237B610023BB610223FB617C
:1023A00007F110031946054800F002FC00BF203772
:1023B000BD4680BD001002400010014000080140F1
:1023C00080B400AF72B600BFFEE7000080B485B0F5
:1023D00000AF154B9B69144A43F001039361124B04
:1023E0009B6903F00103BB60BB680F4BDB690E4ABE
:1023F00043F08053D3610C4BDB6903F080537B6067
:102400007B680A4B5B68FB60FB6823F0E063FB6062
:10241000FB6843F00073FB60044AFB68536000BF35
:102420001437BD4680BC70470010024000000140D8
:1024300080B58AB000AF786007F1140300221A60FB
:102440005A609A60DA607B681B681D4A934232D1F9
:102450001C4B9B691B4A43F008039361194B9B6912
:1024600003F008033B613B694FF440737B61122327
:10247000BB6103233B6207F114031946124800F0C5
:1024800097FB124B5B687B627B6A43F0E0637B6285
:102490007B6A43F002037B620C4A7B6A5360094B00
:1024A000DB69084A43F40013D361064BDB6903F48C
:1024B0000013FB60FB6800BF2837BD4680BD00BF2E
:1024C0000054004000100240000C01400000014098
:1024D00080B485B000AF78607B681B68B3F1804F33
:1024E0000BD1084BDB69074A43F00103D361054B6D
:1024F000DB6903F00103FB60FB6800BF1437BD46D6
:1025000080BC70470010024080B58AB000AF786090
:1025100007F1180300221A605A609A60DA607B683B
:102520001B68404A93423AD13F4B9B693E4A43F471
:10253000804393613C4B9B6903F480437B617B69DF
:10254000394B9B69384A43F004039361364B9B69CE
:1025500003F004033B613B694FF40073BB6102234A
:10256000FB6103237B6207F1180319462F4800F033
:102570001FFB4FF48063BB610023FB6100233B62C0
:1025800007F118031946294800F012FB0022002128
:10259000252000F0D6FA252000F0EFFA3EE07B6817
:1025A0001B68234A934239D11F4BDB691E4A43F40F
:1025B0008023D3611C4BDB6903F48023FB60FB6841
:1025C000194B9B69184A43F008039361164B9B69AA
:1025D00003F00803BB60BB684FF48063BB61022358
:1025E000FB6103237B6207F118031946114800F0D1
:1025F000DFFA4FF40063BB610023FB6100233B6201
:1026000007F1180319460B4800F0D2FA0022002106
:10261000272000F096FA272000F0AFFA00BF2837F5
:10262000BD4680BD00380140001002400008014056
:1026300000480040000C014080B400AFFEE780B4C9
:1026400000AFFEE780B400AFFEE780B400AFFEE766
:1026500080B400AFFEE780B400AF00BFBD4680BCD1
:10266000704780B400AF00BFBD4680BC704780B4E7
:1026700000AF00BFBD4680BC704780B500AF00F022
:1026800049F900BF80BD000080B500AF0248FFF7E8
:10269000ADF800BF80BD00BFE40A002080B500AFE8
:1026A0000248FFF7A3F800BF80BD00BF2C0B00203D
:1026B00080B400AF01231846BD4680BC704780B58A
:1026C00082B000AF7860396003F08CFB03461622BD
:1026D0001A604FF0FF3318460837BD4680BD80B5FD
:1026E00082B000AF78604FF0FF317868FFF7E7FF06
:1026F000FEE780B586B000AFF860B9607A6000236D
:102700007B610AE0AFF300800146BB685A1CBA60E7
:10271000CAB21A707B6901337B617A697B689A421D
:10272000F0DB7B6818461837BD4680BD80B586B0A3
:1027300000AFF860B9607A6000237B6109E0BB6894
:102740005A1CBA601B781846AFF300807B690133CE
:102750007B617A697B689A42F1DB7B68184618379F
:10276000BD4680BD80B483B000AF78604FF0FF33CA
:1027700018460C37BD4680BC704780B483B000AFAC
:10278000786039603B684FF400525A600023184665
:102790000C37BD4680BC704780B483B000AF786012
:1027A000012318460C37BD4680BC704780B485B005
:1027B00000AFF860B9607A60002318461437BD4650
:1027C00080BC704780B586B000AF7860144A154B66
:1027D000D31A7B617B693B61134B1B68002B02D1D1
:1027E000114B124A1A60104B1A687B6813443A69FD
:1027F0009A4207D203F0F6FA03460C221A604FF011
:10280000FF3309E0084B1B68FB60074B1A687B68C5
:102810001344054A1360FB6818461837BD4680BD4F
:102820000050002000040000A80B0020000D002034
:1028300080B400AF00BFBD4680BC7047FFF7F8FF13
:102840000B480C490C4A002302E0D458C45004330E
:10285000C4188C42F9D3094A094C002301E01360E3
:102860000432A242FBD303F0C3FAFFF739FB7047EF
:1028700000000020E8010020909A0008E8010020F4
:10288000FC0C0020FEE7000080B500AF084B1B6881
:10289000074A43F010031360032000F047F90F20AC
:1028A00000F008F8FFF792FD0023184680BD00BF36
:1028B0000020024080B582B000AF7860124B1A68E9
:1028C000124B1B7819464FF47A73B3FBF1F3B2FB4A
:1028D000F3F3184600F05FF90346002B01D0012303
:1028E0000EE07B680F2B0AD8002279684FF0FF308A
:1028F00000F027F9064A7B681360002300E00123FB
:1029000018460837BD4680BD0000002008000020A2
:102910000400002080B400AF054B1B781A46054B1D
:102920001B681344034A136000BFBD4680BC704758
:1029300008000020AC0B002080B400AF024B1B68E5
:102940001846BD4680BC7047AC0B002080B584B0F3
:1029500000AF7860FFF7F0FFB8607B68FB60FB6852
:10296000B3F1FF3F05D00A4B1B781A46FB681344AE
:10297000FB6000BFFFF7E0FF0246BB68D31AFA68AE
:102980009A42F7D800BF00BF1037BD4680BD00BFD8
:102990000800002080B485B000AF78607B6803F049
:1029A0000703FB600C4BDB68BB60BA684FF6FF03A4
:1029B0001340BB60FB681A02BB68134343F0BF635C
:1029C00043F40033BB60044ABB68D36000BF1437D4
:1029D000BD4680BC704700BF00ED00E080B400AF92
:1029E000044BDB681B0A03F007031846BD4680BC96
:1029F000704700BF00ED00E080B483B000AF034635
:102A0000FB7197F90730002B0BDBFB7903F01F02FA
:102A1000064997F907305B09012000FA02F241F8F4
:102A2000232000BF0C37BD4680BC704700E100E0AA
:102A300080B483B000AF03463960FB7197F907306B
:102A4000002B0ADB3B68DAB20C4997F90730120118
:102A5000D2B20B4483F800230AE03B68DAB208499B
:102A6000FB7903F00F03043B1201D2B20B441A7638
:102A700000BF0C37BD4680BC704700BF00E100E0DE
:102A800000ED00E080B489B000AFF860B9607A6012
:102A9000FB6803F00703FB61FB69C3F10703042B29
:102AA00028BF0423BB61FB690433062B02D9FB69F1
:102AB000033B00E000237B614FF0FF32BB6902FA69
:102AC00003F3DA43BB681A407B699A404FF0FF3149
:102AD0007B6901FA03F3D9437B680B401343184623
:102AE0002437BD4680BC704780B582B000AF7860A7
:102AF0007B68013BB3F1807F01D301230FE00A4AD9
:102B00007B68013B53600F214FF0FF30FFF790FFD0
:102B1000054B00229A60044B07221A6000231846D6
:102B20000837BD4680BD00BF10E000E080B582B030
:102B300000AF78607868FFF72DFF00BF0837BD460B
:102B400080BD80B586B000AF0346B9607A60FB7384
:102B500000237B61FFF742FF78617A68B968786982
:102B6000FFF790FF024697F90F3011461846FFF71E
:102B70005FFF00BF1837BD4680BD80B582B000AF93
:102B80000346FB7197F907301846FFF735FF00BF82
:102B90000837BD4680BD80B582B000AF78607868E8
:102BA000FFF7A2FF034618460837BD4680BD000068
:102BB00080B48BB000AF7860396000237B62002363
:102BC0003B6269E101227B6A02FA03F3FB613B6825
:102BD0001B68FA691340BB61BA69FB699A4240F00D
:102BE00058813B685B689A4A93425ED0984A934208
:102BF00075D8984A934258D0964A93426FD8964ACD
:102C0000934252D0944A934269D8944A93424CD00A
:102C1000924A934263D8924A934246D0904A934252
:102C20005DD8122B2AD8122B59D801A252F823F0C2
:102C3000AB2C0008852C0008972C0008D92C000824
:102C4000DF2C0008DF2C0008DF2C0008DF2C000838
:102C5000DF2C0008DF2C0008DF2C0008DF2C000828
:102C6000DF2C0008DF2C0008DF2C0008DF2C000818
:102C7000DF2C00088D2C0008A12C0008794A934213
:102C800013D02CE03B68DB683B6229E03B68DB68E3
:102C900004333B6224E03B68DB6808333B621FE09F
:102CA0003B68DB680C333B621AE03B689B68002B97
:102CB00002D104233B6213E03B689B68012B05D1E2
:102CC00008233B627B68FA691A6109E008233B62CA
:102CD0007B68FA695A6103E000233B6200E000BFB1
:102CE000BB69FF2B01D87B6801E07B6804337B6103
:102CF000BB69FF2B02D87B6A9B0002E07B6A083B22
:102D00009B003B617B691A680F213B6901FA03F361
:102D1000DB431A40396A3B6901FA03F31A437B69C2
:102D20001A603B685B6803F08053002B00F0B180B1
:102D30004D4B9B694C4A43F0010393614A4B9B699D
:102D400003F00103BB60BB68484A7B6A9B080233FF
:102D500052F82330FB607B6A03F003039B000F22D1
:102D600002FA03F3DB43FA681340FB607B68404AD6
:102D7000934213D07B683F4A93420DD07B683E4A12
:102D8000934207D07B683D4A934201D1032306E07A
:102D9000042304E0022302E0012300E000237A6A16
:102DA00002F0030292009340FA681343FB602F493C
:102DB0007B6A9B080233FA6841F823203B685B6812
:102DC00003F48013002B06D02D4B9A682C49BB6965
:102DD00013438B6006E02A4B9A68BB69DB432849A2
:102DE00013408B603B685B6803F40013002B06D034
:102DF000234BDA682249BB691343CB6006E0204BC2
:102E0000DA68BB69DB431E491340CB603B685B68F3
:102E100003F40033002B06D0194B5A681849BB69DC
:102E200013434B6006E0164B5A68BB69DB431449F9
:102E300013404B603B685B6803F48033002B21D068
:102E40000F4B1A680E49BB6913430B6021E000BFAA
:102E5000000032100000311000002210000021108C
:102E6000000012100000111000100240000001408C
:102E700000080140000C0140001001400014014016
:102E8000000401400B4B1A68BB69DB43094913403E
:102E90000B607B6A01337B623B681A687B6A22FAAB
:102EA00003F3002B7FF48EAE00BF00BF2C37BD466E
:102EB00080BC70470004014080B483B000AF7860EC
:102EC0000B467B8013467B707B78002B03D07A887F
:102ED0007B681A6103E07B881A047B681A6100BF73
:102EE0000C37BD4680BC704780B485B000AF7860B9
:102EF0000B467B807B68DB68FB607A88FB6813404D
:102F00001A04FB68D9437B880B401A437B681A611B
:102F100000BF1437BD4680BC7047000080B584B048
:102F200000AF78607B68002B01D101232BE17B6827
:102F300093F83D30DBB2002B06D17B68002283F88A
:102F40003C207868FFF774FA7B68242283F83D20E0
:102F50007B681B681A687B681B6822F001021A6094
:102F60007B681B681A687B681B6842F400421A6021
:102F70007B681B681A687B681B6822F400421A6031
:102F800001F07CFDF8607B685B68814A934207D85A
:102F9000FB68804A934294BF01230023DBB206E022
:102FA000FB687D4A934294BF01230023DBB2002BD0
:102FB00001D00123E7E0FB68784AA2FB03239B0CC6
:102FC000BB607B681B685B6823F03F017B681B6804
:102FD000BA680A435A607B681B681B6A23F03F018A
:102FE0007B685B686A4A934202D8BB68013309E098
:102FF000BB684FF4967202FB03F3694AA2FB0323FA
:103000009B0901337A6812680B4313627B681B6863
:10301000DB6923F44F4222F0FF027B685B685C4966
:103020008B4219D8FB68591E7B685B685B00B1FB5B
:10303000F3F3591C40F6FC730B40002B0AD0FB68DD
:10304000591E7B685B685B00B1FBF3F30133C3F38C
:103050000B0351E004234FE07B689B68002B11D1E8
:10306000FB68581E7B6859680B465B000B44B0FB3D
:10307000F3F30133C3F30B03002B0CBF0123002335
:10308000DBB212E0FB68581E7B6859680B469B0058
:103090000B4499000B44B0FBF3F30133C3F30B0370
:1030A000002B0CBF01230023DBB2002B01D0012336
:1030B00022E07B689B68002B0ED1FB68581E7B6862
:1030C00059680B465B000B44B0FBF3F30133C3F3C9
:1030D0000B0343F400430FE0FB68581E7B685968FC
:1030E0000B469B000B4499000B44B0FBF3F30133F8
:1030F000C3F30B0343F44043796809681343CB617E
:103100007B681B681B6823F0C0017B68DA697B68F9
:103110001B6A1A437B681B680A431A607B681B683A
:103120009B6823F4034323F0FF037A6811697A68EC
:10313000D26811437A6812680B4393607B681B68FE
:10314000DB6823F0FF017B685A697B689B691A433F
:103150007B681B680A43DA607B681B681A687B68B7
:103160001B6842F001021A607B6800221A647B68C7
:10317000202283F83D207B6800221A637B680022AE
:1031800083F83E20002318461037BD4680BD00BF9F
:10319000A08601007F841E00FF083D0083DE1B43E4
:1031A000D34D621080B588B002AFF8607A601A46DD
:1031B0000B467B8113463B81FFF7BEFB7861FB68C2
:1031C00093F83D30DBB2202B40F0E0807B69009328
:1031D000192301227049F86800F050FE0346002BC5
:1031E00001D00223D3E0FB6893F83C30012B01D1DE
:1031F0000223CCE0FB68012283F83C20FB681B68BB
:103200001B6803F00103012B07D0FB681B681A68D9
:10321000FB681B6842F001021A60FB681B681A68B1
:10322000FB681B6822F400621A60FB68212283F8A5
:103230003D20FB68102283F83E20FB6800221A64C0
:10324000FB687A685A62FB683A895A85FB685B8D2D
:103250009AB2FB681A85FB68504ADA6279897B6901
:103260003A6AF86800F00AFC0346002B01D00123FB
:103270008DE000233B61FB681B685B693B61FB6879
:103280001B689B693B613B6966E07A69396AF8684B
:1032900000F00EFF0346002B0DD0FB681B6C042BC7
:1032A00007D1FB681B681A68FB681B6842F4007250
:1032B0001A6001236BE0FB685B6A1A78FB681B6885
:1032C0001A61FB685B6A5A1CFB685A62FB685B8D7B
:1032D0009BB2013B9AB2FB685A85FB681B8D013B90
:1032E0009AB2FB681A85FB681B685B6903F00403EC
:1032F000042B1BD1FB681B8D002B17D0FB685B6A6E
:103300001A78FB681B681A61FB685B6A5A1CFB68C9
:103310005A62FB685B8D9BB2013B9AB2FB685A858F
:10332000FB681B8D013B9AB2FB681A857A69396A82
:10333000F86800F005FF0346002B0DD0FB681B6CFE
:10334000042B07D1FB681B681A68FB681B6842F4F2
:1033500000721A6001231AE0FB681B8D002B94D1C8
:10336000FB681B681A68FB681B6842F400721A60ED
:10337000FB68202283F83D20FB68002283F83E2072
:10338000FB68002283F83C20002300E0022318465B
:103390001837BD4680BD00BF020010000000FFFFCF
:1033A00080B588B002AFF860084611461A46034659
:1033B0007B810B463B811346FB80FFF7BDFA7861AA
:1033C000FB6893F83D30DBB2202B40F0D9807B695D
:1033D0000093192301226D49F86800F04FFD034660
:1033E000002B01D00223CCE0FB6893F83C30012B8A
:1033F00001D10223C5E0FB68012283F83C20FB6871
:103400001B681B6803F00103012B07D0FB681B68D6
:103410001A68FB681B6842F001021A60FB681B68AF
:103420001A68FB681B6822F400621A60FB6821229C
:1034300083F83D20FB68402283F83E20FB68002291
:103440001A64FB683A6A5A62FB68BA8C5A85FB6850
:103450005B8D9AB2FB681A85FB684D4ADA62F88880
:103460003A8979897B690193BB6A00930346F868BE
:1034700000F086FB0346002B52D0012381E07A69DD
:10348000B96AF86800F014FE0346002B0DD0FB6803
:103490001B6C042B07D1FB681B681A68FB681B6850
:1034A00042F400721A6001236BE0FB685B6A1A78D1
:1034B000FB681B681A61FB685B6A5A1CFB685A62EE
:1034C000FB681B8D013B9AB2FB681A85FB685B8D1C
:1034D0009BB2013B9AB2FB685A85FB681B685B692B
:1034E00003F00403042B1BD1FB681B8D002B17D0AA
:1034F000FB685B6A1A78FB681B681A61FB685B6A89
:103500005A1CFB685A62FB681B8D013B9AB2FB6830
:103510001A85FB685B8D9BB2013B9AB2FB685A85AA
:10352000FB681B8D002BAAD17A69B96AF86800F094
:1035300007FE0346002B0DD0FB681B6C042B07D144
:10354000FB681B681A68FB681B6842F400721A600B
:10355000012316E0FB681B681A68FB681B6842F4CD
:1035600000721A60FB68202283F83D20FB6800226D
:1035700083F83E20FB68002283F83C20002300E013
:10358000022318461837BD4680BD00BF0200100058
:103590000000FFFF80B58CB002AFF860084611460E
:1035A0001A4603467B810B463B811346FB80002372
:1035B0003B62FFF7C1F97862FB6893F83D30DBB2FC
:1035C000202B40F050827B6A00931923012282490C
:1035D000F86800F053FC0346002B01D0022343E2BD
:1035E000FB6893F83C30012B01D102233CE2FB68DD
:1035F000012283F83C20FB681B681B6803F0010371
:10360000012B07D0FB681B681A68FB681B6842F037
:1036100001021A60FB681B681A68FB681B6822F4C9
:1036200000621A60FB68222283F83D20FB6840227A
:1036300083F83E20FB6800221A64FB683A6B5A62EA
:10364000FB68BA8E5A85FB685B8D9AB2FB681A8557
:10365000FB68624ADA62F8883A8979897B6A019361
:10366000BB6B00930346F86800F020FB0346002B79
:1036700001D00123F8E1FB681B8D002B13D100233F
:10368000FB61FB681B685B69FB61FB681B689B69EE
:10369000FB61FB69FB681B681A68FB681B6842F4E6
:1036A00000721A60CCE1FB681B8D012B1ED1FB68F8
:1036B0001B681A68FB681B6822F480621A6072B685
:1036C00000BF0023BB61FB681B685B69BB61FB68D3
:1036D0001B689B69BB61BB69FB681B681A68FB6858
:1036E0001B6842F400721A6062B635E0FB681B8DFD
:1036F000022B1ED1FB681B681A68FB681B6842F42A
:1037000000621A6072B600BF00237B61FB681B6811
:103710005B697B61FB681B689B697B617B69FB68FC
:103720001B681A68FB681B6822F480621A6062B624
:1037300012E0FB681B681A68FB681B6842F4806231
:103740001A6000233B61FB681B685B693B61FB6897
:103750001B689B693B613B6972E1FB681B8D032B16
:1037600000F21F81FB681B8D012B23D17A6AB96B94
:10377000F86800F02DFD0346002B01D0012373E112
:10378000FB681B681A69FB685B6AD2B21A70FB6837
:103790005B6A5A1CFB685A62FB681B8D013B9AB23C
:1037A000FB681A85FB685B8D9BB2013B9AB2FB6894
:1037B0005A8545E1FB681B8D022B52D17B6A009331
:1037C000BB6B00220649F86800F058FB0346002B4B
:1037D00008D0012348E100BF020010000000FFFFF5
:1037E0000400010072B600BFFB681B681A68FB6822
:1037F0001B6842F400721A60FB681B681A69FB6858
:103800005B6AD2B21A70FB685B6A5A1CFB685A6228
:10381000FB681B8D013B9AB2FB681A85FB685B8DC8
:103820009BB2013B9AB2FB685A8562B600BFFB6847
:103830001B681A69FB685B6AD2B21A70FB685B6A24
:103840005A1CFB685A62FB681B8D013B9AB2FB68ED
:103850001A85FB685B8D9BB2013B9AB2FB685A8567
:10386000EEE07B6A0093BB6B00228149F86800F0B0
:1038700005FB0346002B01D00123F5E0FB681B6824
:103880001A68FB681B6822F480621A6072B600BF77
:10389000FB681B681A69FB685B6AD2B21A70FB6826
:1038A0005B6A5A1CFB685A62FB681B8D013B9AB22B
:1038B000FB681A85FB685B8D9BB2013B9AB2FB6883
:1038C0005A856C4B1B68DB086B4AA2FB03231A0A60
:1038D00013469B001344DA00D31A3B623B6A013B58
:1038E0003B623B6A002B18D1FB6800221A63FB681D
:1038F000202283F83D20FB68002283F83E20FB68ED
:103900001B6C43F02002FB681A6462B600BFFB68C0
:10391000002283F83C200123A6E0FB681B685B695A
:1039200003F00403042BD9D1FB681B681A68FB68F9
:103930001B6842F400721A60FB681B681A69FB6816
:103940005B6AD2B21A70FB685B6A5A1CFB685A62E7
:10395000FB681B8D013B9AB2FB681A85FB685B8D87
:103960009BB2013B9AB2FB685A8562B600BFFB6806
:103970001B681A69FB685B6AD2B21A70FB685B6AE3
:103980005A1CFB685A62FB681B8D013B9AB2FB68AC
:103990001A85FB685B8D9BB2013B9AB2FB685A8526
:1039A0004EE07A6AB96BF86800F012FC0346002B0F
:1039B00001D0012358E0FB681B681A69FB685B6A49
:1039C000D2B21A70FB685B6A5A1CFB685A62FB68C9
:1039D0001B8D013B9AB2FB681A85FB685B8D9BB21D
:1039E000013B9AB2FB685A85FB681B685B6903F070
:1039F0000403042B24D1FB681B8D032B07D1FB6828
:103A00001B681A68FB681B6822F480621A60FB68F6
:103A10001B681A69FB685B6AD2B21A70FB685B6A42
:103A20005A1CFB685A62FB681B8D013B9AB2FB680B
:103A30001A85FB685B8D9BB2013B9AB2FB685A8585
:103A4000FB681B8D002B7FF488AEFB68202283F877
:103A50003D20FB68002283F83E20FB68002283F8AB
:103A60003C20002300E0022318462837BD4680BDD5
:103A7000040001000000002089B5F81480B588B06A
:103A800002AFF8607A603B600B467B81FB68DB6AC3
:103A90007B617B69082B06D07B69012B03D07B6996
:103AA00013F5803F08D1FB681B681A68FB681B6828
:103AB00042F480721A600BE0FB681B6B122B07D17B
:103AC000FB681B681A68FB681B6842F480721A6006
:103AD0003B6800937B6800224FF00111F86800F00A
:103AE000CDF90346002B0DD0FB681B681B6803F45F
:103AF0008073B3F5807F03D1FB684FF400721A64C2
:103B0000032335E0FB681B69B3F5804F08D17B893F
:103B1000DBB21A46FB681B6802F0FE021A611BE06A
:103B20007B89DB11DBB203F00603DBB263F00F032A
:103B3000DAB2FB681B681A613B687A680E49F8685C
:103B400000F016FA0346002B01D0012310E07B8918
:103B5000DAB2FB681B681A613B687A680749F86843
:103B600000F006FA0346002B01D0012300E00023F9
:103B700018461837BD4680BD08000100020001004C
:103B800080B588B002AFF860084611461A46034671
:103B90007B810B463B811346FB80FB681B681A68E0
:103BA000FB681B6842F480721A607B6A00933B6A70
:103BB00000224FF00111F86800F060F90346002B75
:103BC0000DD0FB681B681B6803F48073B3F5807F1E
:103BD00003D1FB684FF400721A6403235FE07B8912
:103BE000DBB21A46FB681B6802F0FE021A617B6AB0
:103BF0003A6A2D49F86800F0BBF90346002B01D062
:103C000001234CE000237B61FB681B685B697B61DF
:103C1000FB681B689B697B617B697A6A396AF86813
:103C200000F046FA0346002B0DD0FB681B6C042BFA
:103C300007D1FB681B681A68FB681B6842F40072B6
:103C40001A6001232BE0FB88012B05D13B89DAB2F6
:103C5000FB681B681A6121E03B891B0A9BB2DAB240
:103C6000FB681B681A617A6A396AF86800F020FA02
:103C70000346002B0DD0FB681B6C042B07D1FB689F
:103C80001B681A68FB681B6842F400721A60012303
:103C900005E03B89DAB2FB681B681A61002318460D
:103CA0001837BD4680BD00BF0200010080B588B056
:103CB00002AFF860084611461A4603467B810B4660
:103CC0003B811346FB80FB681B681A68FB681B6816
:103CD00042F480621A60FB681B681A68FB681B6804
:103CE00042F480721A607B6A00933B6A00224FF0B4
:103CF0000111F86800F0C2F80346002B0DD0FB68F4
:103D00001B681B6803F48073B3F5807F03D1FB68E5
:103D10004FF400721A640323AAE07B89DBB21A46CF
:103D2000FB681B6802F0FE021A617B6A3A6A52491C
:103D3000F86800F01DF90346002B01D0012397E03D
:103D400000237B61FB681B685B697B61FB681B6808
:103D50009B697B617B697A6A396AF86800F0A8F927
:103D60000346002B0DD0FB681B6C042B07D1FB68AE
:103D70001B681A68FB681B6842F400721A60012312
:103D800076E0FB88012B05D13B89DAB2FB681B6822
:103D90001A6121E03B891B0A9BB2DAB2FB681B68FF
:103DA0001A617A6A396AF86800F082F90346002BD2
:103DB0000DD0FB681B6C042B07D1FB681B681A68CD
:103DC000FB681B6842F400721A60012350E03B89D3
:103DD000DAB2FB681B681A617A6A396AF86800F01F
:103DE00067F90346002B0DD0FB681B6C042B07D131
:103DF000FB681B681A68FB681B6842F400721A6053
:103E0000012335E0FB681B681A68FB681B6842F4F5
:103E100080721A607B6A00933B6A00224FF00111A6
:103E2000F86800F02BF80346002B0DD0FB681B68E8
:103E30001B6803F48073B3F5807F03D1FB684FF4F4
:103E400000721A64032313E07B89DBB243F00103A1
:103E5000DAB2FB681B681A617B6A3A6A0649F8683D
:103E600000F086F80346002B01D0012300E0002378
:103E700018461837BD4680BD0200010080B584B0E9
:103E800000AFF860B9603B601346FB7148E03B68E7
:103E9000B3F1FF3F44D0FEF74FFD0246BB69D31A92
:103EA0003A689A4202D33B68002B39D1BB681B0C9D
:103EB000DBB2012B0DD1FB681B685B69DA43BB6881
:103EC00013409BB2002B0CBF01230023DBB21A4628
:103ED0000CE0FB681B689B69DA43BB6813409BB22C
:103EE000002B0CBF01230023DBB21A46FB799A4258
:103EF00016D1FB6800221A63FB68202283F83D205C
:103F0000FB68002283F83E20FB681B6C43F0200214
:103F1000FB681A64FB68002283F83C20012323E03D
:103F2000BB681B0CDBB2012B0DD1FB681B685B6906
:103F3000DA43BB6813409BB2002B0CBF0123002364
:103F4000DBB21A460CE0FB681B689B69DA43BB686E
:103F500013409BB2002B0CBF01230023DBB21A4697
:103F6000FB799A4293D0002318461037BD4680BD96
:103F700080B584B000AFF860B9607A603B6071E0F2
:103F8000FB681B685B6903F48063B3F5806F23D122
:103F9000FB681B681A68FB681B6842F400721A60B1
:103FA000FB681B686FF480625A61FB6800221A6329
:103FB000FB68202283F83D20FB68002283F83E2026
:103FC000FB681B6C43F00402FB681A64FB68002268
:103FD00083F83C20012367E07B68B3F1FF3F41D0C9
:103FE000FEF7AAFC02463B68D31A7A689A4202D3CB
:103FF0007B68002B36D1BB681B0CDBB2012B0CD1CC
:10400000FB681B685B69DA43BB6813409BB2002BFB
:1040100014BF01230023DBB20BE0FB681B689B6924
:10402000DA43BB6813409BB2002B14BF012300236B
:10403000DBB2002B16D0FB6800221A63FB6820223B
:1040400083F83D20FB68002283F83E20FB681B6C50
:1040500043F02002FB681A64FB68002283F83C20CE
:10406000012321E0BB681B0CDBB2012B0CD1FB68E8
:104070001B685B69DA43BB6813409BB2002B14BF1B
:1040800001230023DBB20BE0FB681B689B69DA436A
:10409000BB6813409BB2002B14BF01230023DBB28B
:1040A000002B7FF46DAF002318461037BD4680BD4E
:1040B00080B584B000AFF860B9607A6034E0F86829
:1040C00000F0E3F80346002B01D0012334E0BB6885
:1040D000B3F1FF3F28D0FEF72FFC02467B68D31ACE
:1040E000BA689A4202D3BB68002B1DD1FB681B68DB
:1040F0005B6903F08003802B16D0FB6800221A63F3
:10410000FB68202283F83D20FB68002283F83E20D4
:10411000FB681B6C43F02002FB681A64FB680022FA
:1041200083F83C20012307E0FB681B685B6903F010
:104130008003802BC3D1002318461037BD4680BDB5
:1041400080B584B000AFF860B9607A6034E0F86898
:1041500000F09BF80346002B01D0012334E0BB683C
:10416000B3F1FF3F28D0FEF7E7FB02467B68D31A86
:10417000BA689A4202D3BB68002B1DD1FB681B684A
:104180005B6903F00403042B16D0FB6800221A635A
:10419000FB68202283F83D20FB68002283F83E2044
:1041A000FB681B6C43F02002FB681A64FB6800226A
:1041B00083F83C20012307E0FB681B685B6903F080
:1041C0000403042BC3D1002318461037BD4680BD1D
:1041D00080B584B000AFF860B9607A6049E0FB68F0
:1041E0001B685B6903F01003102B19D1FB681B6877
:1041F0006FF010025A61FB6800221A63FB682022EC
:1042000083F83D20FB68002283F83E20FB681A6C8F
:10421000FB681A64FB68002283F83C20012330E02D
:10422000FEF78AFB02467B68D31ABA689A4202D329
:10423000BB68002B1DD1FB681B685B6903F0400362
:10424000402B16D0FB6800221A63FB68202283F8FB
:104250003D20FB68002283F83E20FB681B6C43F086
:104260002002FB681A64FB68002283F83C200123CB
:1042700007E0FB681B685B6903F04003402BAED18D
:10428000002318461037BD4680BD80B483B000AF10
:1042900078607B681B685B6903F48063B3F5806FAB
:1042A0001BD17B681B686FF480625A617B680022B7
:1042B0001A637B68202283F83D207B68002283F804
:1042C0003E207B681B6C43F004027B681A647B68A9
:1042D000002283F83C20012300E0002318460C371D
:1042E000BD4680BC7047000080B586B000AF7860E6
:1042F0007B68002B01D1012372E27B681B6803F00D
:104300000103002B00F08780924B5B6803F00C03E5
:10431000042B0CD08F4B5B6803F00C03082B12D1DD
:104320008C4B5B6803F48033B3F5803F0BD1894B32
:104330001B6803F40033002B6CD07B685B68002B98
:1043400068D101234CE27B685B68B3F5803F06D1FE
:10435000804B1B687F4A43F4803313602EE07B68F8
:104360005B68002B0CD17B4B1B687A4A23F48033AB
:104370001360784B1B68774A23F4802313601DE099
:104380007B685B68B3F5A02F0CD1724B1B68714A38
:1043900043F4802313606F4B1B686E4A43F48033F1
:1043A00013600BE06B4B1B686A4A23F48033136085
:1043B000684B1B68674A23F4802313607B685B6843
:1043C000002B13D0FEF7B8FA386108E0FEF7B4FA14
:1043D00002463B69D31A642B01D9032300E25D4BEB
:1043E0001B6803F40033002BF0D014E0FEF7A4FAAE
:1043F000386108E0FEF7A0FA02463B69D31A642B45
:1044000001D90323ECE1534B1B6803F40033002B69
:10441000F0D100E000BF7B681B6803F00203002BB3
:1044200063D04C4B5B6803F00C03002B0BD0494B63
:104430005B6803F00C03082B1CD1464B5B6803F44C
:104440008033002B16D1434B1B6803F00203002B73
:1044500005D07B681B69012B01D00123C0E13D4BD6
:104460001B6823F0F8027B685B69DB003949134362
:104470000B603AE07B681B69002B20D0364B012291
:104480001A60FEF759FA386108E0FEF755FA02465D
:104490003B69D31A022B01D90323A1E12D4B1B68E1
:1044A00003F00203002BF0D02A4B1B6823F0F80224
:1044B0007B685B69DB00274913430B6015E0264BE3
:1044C00000221A60FEF738FA386108E0FEF734FA85
:1044D00002463B69D31A022B01D9032380E11D4B0D
:1044E0001B6803F00203002BF0D17B681B6803F00C
:1044F0000803002B3AD07B689B69002B19D0174B1F
:1045000001221A60FEF718FA386108E0FEF714FA83
:1045100002463B69D31A022B01D9032360E10D4BFC
:104520005B6A03F00203002BF0D0012000F0CEFA0A
:104530001CE00A4B00221A60FEF7FEF938610FE01A
:10454000FEF7FAF902463B69D31A022B08D9032376
:1045500046E100BF00100240000042428004424297
:10456000924B5B6A03F00203002BE9D17B681B6866
:1045700003F00403002B00F0A6800023FB758B4B97
:10458000DB6903F08053002B0DD1884BDB69874A30
:1045900043F08053D361854BDB6903F08053BB60EC
:1045A000BB680123FB75824B1B6803F48073002BEF
:1045B00018D17F4B1B687E4A43F480731360FEF76B
:1045C000BBF9386108E0FEF7B7F902463B69D31A38
:1045D000642B01D9032303E1754B1B6803F480733B
:1045E000002BF0D07B68DB68012B06D16F4B1B6A78
:1045F0006E4A43F0010313622DE07B68DB68002BF9
:104600000CD16A4B1B6A694A23F001031362674BA2
:104610001B6A664A23F0040313621CE07B68DB68B4
:10462000052B0CD1614B1B6A604A43F004031362F3
:104630005E4B1B6A5D4A43F0010313620BE05B4B68
:104640001B6A5A4A23F001031362584B1B6A574AEC
:1046500023F0040313627B68DB68002B15D0FEF7A0
:104660006BF938610AE0FEF767F902463B69D31A35
:1046700041F28832934201D90323B1E04B4B1B6ACC
:1046800003F00203002BEED014E0FEF755F9386179
:104690000AE0FEF751F902463B69D31A41F288322B
:1046A000934201D903239BE0404B1B6A03F00203B2
:1046B000002BEED1FB7D012B05D13C4BDB693B4A46
:1046C00023F08053D3617B68DB69002B00F0878087
:1046D000364B5B6803F00C03082B61D07B68DB6909
:1046E000022B46D1334B00221A60FEF725F93861C0
:1046F00008E0FEF721F902463B69D31A022B01D9E3
:1047000003236DE0294B1B6803F00073002BF0D1ED
:104710007B681B6AB3F5803F08D1244B5B6823F4A8
:1047200000327B689B68214913434B601F4B5B68D9
:1047300023F474127B68196A7B685B6A0B431B491C
:1047400013434B601B4B01221A60FEF7F5F83861EA
:1047500008E0FEF7F1F802463B69D31A022B01D9B3
:1047600003233DE0114B1B6803F00073002BF0D0D6
:1047700035E0104B00221A60FEF7DEF8386108E0E1
:10478000FEF7DAF802463B69D31A022B01D903235C
:1047900026E0064B1B6803F00073002BF0D11EE0EF
:1047A0007B68DB69012B07D1012319E0001002406F
:1047B00000700040600042420B4B5B68FB60FB688E
:1047C00003F480327B681B6A9A4206D1FB6803F4CB
:1047D00070127B685B6A9A4201D0012300E00023DB
:1047E00018461837BD4680BD0010024080B584B021
:1047F00000AF786039607B68002B01D10123D0E0E5
:104800006A4B1B6803F007033A689A4210D9674B5A
:104810001B6823F0070265493B6813430B60634B39
:104820001B6803F007033A689A4201D00123B8E0FD
:104830007B681B6803F00203002B20D07B681B6899
:1048400003F00403002B05D0594B5B68584A43F42E
:10485000E06353607B681B6803F00803002B05D0FE
:10486000534B5B68524A43F460535360504B5B6850
:1048700023F0F0027B689B684D4913434B607B68D3
:104880001B6803F00103002B40D07B685B68012BA1
:1048900007D1474B1B6803F40033002B15D10123CC
:1048A0007FE07B685B68022B07D1414B1B6803F0FC
:1048B0000073002B09D1012373E03D4B1B6803F00B
:1048C0000203002B01D101236BE0394B5B6823F01D
:1048D00003027B685B68364913434B60FEF72CF894
:1048E000F8600AE0FEF728F80246FB68D31A41F2A6
:1048F0008832934201D9032353E02D4B5B6803F0C8
:104900000C027B685B689B009A42EBD1274B1B68CB
:1049100003F007033A689A4210D2244B1B6823F035
:10492000070222493B6813430B60204B1B6803F0CE
:1049300007033A689A4201D0012332E07B681B6882
:1049400003F00403002B08D0194B5B6823F4E062EA
:104950007B68DB68164913434B607B681B6803F078
:104960000803002B09D0124B5B6823F460527B686C
:104970001B69DB000E4913434B6000F021F802462F
:104980000B4B5B681B0903F00F030A49CB5C22FA4F
:1049900003F3094A1360094B1B681846FDF78AFFA9
:1049A000002318461037BD4680BD00BF00200240DE
:1049B000001002407C960008000000200400002047
:1049C00080B487B000AF0023FB600023BB600023EE
:1049D0007B6100237B6000233B611E4B5B68FB60B7
:1049E000FB6803F00C03042B02D0082B03D027E054
:1049F000194B3B6127E0FB689B0C03F00F03174A40
:104A0000D35C7B60FB6803F48033002B10D0114B28
:104A10005B685B0C03F00103114AD35CBB607B68ED
:104A20000D4A03FB02F2BB68B2FBF3F37B6104E0C7
:104A30007B680C4A02FB03F37B617B693B6102E00C
:104A4000054B3B6100BF3B6918461C37BD4680BC27
:104A5000704700BF0010024000127A0094960008D0
:104A6000A496000800093D0080B400AF024B1B680B
:104A70001846BD4680BC70470000002080B500AFDE
:104A8000FFF7F2FF0246054B5B681B0A03F00703C2
:104A90000349CB5C22FA03F3184680BD00100240A4
:104AA0008C96000880B500AFFFF7DEFF0246054B8D
:104AB0005B68DB0A03F007030349CB5C22FA03F3CC
:104AC000184680BD001002408C96000880B485B066
:104AD00000AF78600A4B1B680A4AA2FB03235B0AFB
:104AE0007A6802FB03F3FB6000BFFB685A1EFA60A2
:104AF000002BF9D100BF00BF1437BD4680BC704702
:104B000000000020D34D621080B582B000AF786005
:104B10007B68002B01D1012341E07B6893F83D3095
:104B2000DBB2002B06D17B68002283F83C2078683A
:104B3000FDF7CEFC7B68022283F83D207B681A6873
:104B40007B6804331946104600F048F97B6801225F
:104B500083F846207B68012283F83E207B6801228F
:104B600083F83F207B68012283F840207B68012284
:104B700083F841207B68012283F842207B68012270
:104B800083F843207B68012283F844207B6801225C
:104B900083F845207B68012283F83D2000231846D6
:104BA0000837BD4680BD000080B485B000AF786096
:104BB0007B6893F83D30DBB2012B01D001233AE052
:104BC0007B68022283F83D207B681B68DA687B687B
:104BD0001B6842F00102DA607B681B68184A934246
:104BE0000ED07B681B68B3F1804F09D07B681B68CF
:104BF000144A934204D07B681B68134A934211D134
:104C00007B681B689B6803F00703FB60FB68062B4F
:104C100010D07B681B681A687B681B6842F0010231
:104C20001A6007E07B681B681A687B681B6842F0A3
:104C300001021A60002318461437BD4680BC704735
:104C4000002C0140000400400008004080B584B002
:104C500000AF786039600023FB737B6893F83C30C9
:104C6000012B01D10223B4E07B68012283F83C20B0
:104C70007B68022283F83D207B681B689B68BB60D1
:104C8000BB6823F07703BB60BB6823F47F43BB6042
:104C90007B681B68BA689A603B681B68B3F5005F65
:104CA0003ED0B3F5005F00F28780B3F5805F00F07F
:104CB0008680B3F5805F7FD8702B1AD0702B7BD89D
:104CC000602B50D0602B77D8502B3CD0502B73D812
:104CD000402B58D0402B6FD8302B64D0302B6BD862
:104CE000202B60D0202B67D8002B5CD0102B5AD003
:104CF00062E07B6818683B6899683B685A683B6863
:104D0000DB6800F050F97B681B689B68BB60BB6880
:104D100043F07703BB607B681B68BA689A604FE01A
:104D20007B6818683B6899683B685A683B68DB6831
:104D300000F039F97B681B689A687B681B6842F44D
:104D400080429A603CE07B6818683B6859683B6821
:104D5000DB681A4600F0B0F87B681B6850211846E3
:104D600000F007F92CE07B6818683B6859683B68DD
:104D7000DB681A4600F0CEF87B681B686021184695
:104D800000F0F7F81CE07B6818683B6859683B68DE
:104D9000DB681A4600F090F87B681B6840211846D3
:104DA00000F0E7F80CE07B681A683B681B6819465E
:104DB000104600F0DEF803E00123FB7300E000BFC3
:104DC0007B68012283F83D207B68002283F83C2029
:104DD000FB7B18461037BD4680BD000080B485B00F
:104DE00000AF786039607B681B68FB607B682F4A86
:104DF00093420BD07B68B3F1804F07D07B682C4A7D
:104E0000934203D07B682B4A934208D1FB6823F07E
:104E10007003FB603B685B68FA681343FB607B6868
:104E2000224A93420BD07B68B3F1804F07D07B6856
:104E30001F4A934203D07B681E4A934208D1FB6805
:104E400023F44073FB603B68DB68FA681343FB6044
:104E5000FB6823F080023B685B691343FB607B685F
:104E6000FA681A603B689A687B68DA623B681A687D
:104E70007B689A627B680D4A934203D13B681A694A
:104E80007B681A637B6801225A617B681B6903F0A7
:104E90000103002B05D07B681B6923F001027B68AE
:104EA0001A6100BF1437BD4680BC7047002C01401A
:104EB000000400400008004080B487B000AFF860F4
:104EC000B9607A60FB681B6A7B61FB681B6A23F030
:104ED0000102FB681A62FB689B693B613B6923F036
:104EE000F0033B617B681B013A6913433B617B69BB
:104EF00023F00A037B617A69BB6813437B61FB681B
:104F00003A699A61FB687A691A6200BF1C37BD462C
:104F100080BC704780B487B000AFF860B9607A6039
:104F2000FB681B6A7B61FB681B6A23F01002FB684D
:104F30001A62FB689B693B613B6923F470433B61E8
:104F40007B681B033A6913433B617B6923F0A00331
:104F50007B61BB681B017A6913437B61FB683A691B
:104F60009A61FB687A691A6200BF1C37BD4680BC33
:104F7000704780B485B000AF786039607B689B680B
:104F8000FB60FB6823F07003FB603A68FB68134327
:104F900043F00703FB607B68FA689A6000BF143730
:104FA000BD4680BC704780B487B000AFF860B96080
:104FB0007A603B60FB689B687B617B6923F47F437D
:104FC0007B613B681A027B681A43BB6813437A69AA
:104FD00013437B61FB687A699A6000BF1C37BD464A
:104FE00080BC704780B485B000AF786039607B6862
:104FF00093F83C30012B01D1022346E07B6801226B
:1050000083F83C207B68022283F83D207B681B6884
:105010005B68FB607B681B689B68BB60FB6823F078
:105020007003FB603B681B68FA681343FB607B6896
:105030001B68FA685A607B681B68164A93420ED058
:105040007B681B68B3F1804F09D07B681B68124AEC
:10505000934204D07B681B68104A93420CD1BB6812
:1050600023F08003BB603B685B68BA681343BB6096
:105070007B681B68BA689A607B68012283F83D20D0
:105080007B68002283F83C20002318461437BD4675
:1050900080BC7047002C0140000400400008004024
:1050A00080B582B000AF78607B68002B01D101230E
:1050B00042E07B6893F84130DBB2002B06D17B687D
:1050C000002283F840207868FDF71EFA7B682422CE
:1050D00083F841207B681B68DA687B681B6822F4D0
:1050E0000052DA60786800F02BF87B681B681A6958
:1050F0007B681B6822F490421A617B681B685A69BE
:105100007B681B6822F02A025A617B681B68DA6898
:105110007B681B6842F40052DA607B6800225A64A4
:105120007B68202283F841207B68202283F842207C
:105130007B6800225A63002318460837BD4680BDAD
:1051400080B584B000AF78607B681B681B6923F46E
:1051500040517B68DA687B681B680A431A617B6888
:105160009A687B681B691A437B685B691343BB6061
:105170007B681B68DB6823F4B05323F00C037A6868
:105180001268B9680B43D3607B681B685B6923F4C2
:1051900040717B689A697B681B680A435A617B6827
:1051A0001B682C4A934203D1FFF77CFCF86002E0B5
:1051B000FFF764FCF860FA6813469B0013449A00FA
:1051C0001A447B685B689B00B2FBF3F3224AA2FBA4
:1051D00003235B091901FA6813469B0013449A00E4
:1051E0001A447B685B689B00B2FBF3F21A4BA3FB8B
:1051F00002035B09642000FB03F3D31A1B01323363
:10520000154AA2FB03235B0903F0F0031944FA6873
:1052100013469B0013449A001A447B685B689B000A
:10522000B2FBF3F20C4BA3FB02035B09642000FB0F
:1052300003F3D31A1B013233074AA2FB03235B0992
:1052400003F00F027B681B680A449A6000BF1037A6
:10525000BD4680BD003801401F85EB51002B2DE974
:10526000F0471F46BBBF03F100431F4600232D2319
:1052700088B01446129A109D1370149BDDF84CA050
:1052800023F02008B8F1460F05D0B8F1450F00D142
:105290000135022300E0032307AA049206AACDE900
:1052A00002A2CDE9003522463B4600F061FEB8F18E
:1052B000470F064602D1119BDB0722D5B8F1460FF6
:1052C00006EB050910D13378302B0AD100220023D8
:1052D00020463946FBF768FB18B9C5F10105CAF845
:1052E0000050DAF800309944002200232046394665
:1052F000FBF75AFB08B1CDF81C903022079B4B45B9
:1053000007D33046079B159A9B1B136008B0BDE876
:10531000F087591C07911A70F0E70346F7B500298A
:1053200003F8022BB6BF2D222B22494209294270D5
:105330002ADD0DF1070217460A2691FBF6F5944681
:1053400006FB151430340CF8014C0C46632C29462E
:1053500002F1FF32F1DC3031ACF1020402F8011C41
:105360002246411CBA420AD30DF10902A2EB0C02FB
:10537000BC4288BF00221344181A03B0F0BD12F8D3
:10538000015B01F8015FEDE7302330318370C170BC
:10539000031DF1E72DE9F04F91B00C46DDF8688070
:1053A00016461F46054600F0D3FC036818460993CD
:1053B000FAF7CEFE00230E93D8F800300A90073398
:1053C00023F0070303F1080294F81890D4F800B012
:1053D000C8F80020D3E900A852464346C4E9122386
:1053E00028F000430B934FF0FF3250469C4B0B9933
:1053F000FBF70CFB70BB4FF0FF325046984B0B99FC
:10540000FBF7E6FA30BB0022002350464146FBF78B
:10541000D5FA10B12D2384F84330924A924BB9F15A
:10542000470F94BF9046984603234FF0000A23612C
:105430002BF00403236033462146284600970FAA29
:1054400000F0D6F9013040F090804FF0FF3011B0FD
:10545000BDE8F08F5246434650464146FBF7D6FA28
:1054600048B1B8F1000FB8BF2D23804AB8BF84F807
:1054700043307F4BD3E7636809F0DF015A1C42D108
:1054800006236360002206920EAACDE904920DAABB
:105490004BF4806303920DF13302CDE901322360B6
:1054A000636852460093284643460B91FFF7D6FEA9
:1054B0000B99804647290D9908D1C81C02DB636807
:1054C000994240DDA9F102095FFA89F9B9F1650F46
:1054D0001FD84A46013904F150000D91FFF71DFF16
:1054E0000E9A82461318012A236102DC2268D20731
:1054F00001D5013323619DF83330002B9BD02D2340
:1055000084F8433097E74729BCD1002BBAD1012357
:10551000B7E7B9F1660F18D1002963680BDD216187
:1055200013B92268D00702D501330B4423614FF031
:10553000000AA165DFE713B92268D20701D502335B
:10554000F4E70123F2E74FF067090E9B994205DB70
:1055500023682161D807EAD54B1CE7E70029CCBFB7
:105560000122C1F102021344E0E723685A0507D47F
:105570002369424631462846B84701302BD164E7BB
:10558000B9F1650F40F2DD80D4E912010022002359
:10559000FBF70AFA002833D0012331462846354A62
:1055A000B84701303FF451AFDDE90D239A4202DBE9
:1055B0002368D8070FD5DDE9092331462846B847C7
:1055C00001303FF442AF4FF0000804F11A090E9B7E
:1055D000013B434509DC23689B0700F10481E06837
:1055E0000F9B9842B8BF184631E701234A4631461F
:1055F0002846B84701303FF428AF08F10108E6E734
:105600000D9B002B38DC012331462846194AB84748
:1056100001303FF41AAFDDE90D32134302D12368A4
:10562000D907D8D5DDE9092331462846B8470130E6
:105630003FF40BAF4FF0000904F11A0A0D9B5B42D7
:105640004B4501DC0E9B94E7012352463146284628
:10565000B84701303FF4F9AE09F10109EEE700BFA8
:10566000FFFFEF7FA6960008AA960008AE960008F6
:10567000B2960008B69600080E9AA36D9A42A8BF8B
:105680001A46002A914637DC4FF0000B29EAE979E7
:1056900004F11A02D4F858A0AAEB09035B4533DCE5
:1056A000DDE90D239A423BDB2368DA0738D4DDE9D4
:1056B0000D32A2EB0309A2EB0A029145A8BF914665
:1056C000B9F1000F34DC4FF0000829EAE97904F160
:1056D0001A0ADDE90D239B1AA3EB090343457FF763
:1056E0007AAF0123524631462846B84701303FF48D
:1056F000ACAE08F10108ECE71346314642462846B5
:10570000B8470130C0D1A0E60123314628460B92AC
:10571000B84701303FF499AE0B9A0BF1010BB9E792
:105720003146DDE909232846B8470130BFD18CE670
:105730004B463146284608EB0A02B8470130C2D131
:1057400083E60E9A012A01DCDB0739D501234246A4
:1057500031462846B84701303FF477AEDDE90923EA
:1057600031462846B84701303FF46FAED4E9120104
:1057700000220023DDF83890FBF716F9D8B909F1BB
:10578000FF3308F1010231462846B84701300ED1F7
:105790005BE601234A4631462846B84701303FF4CC
:1057A00054AE08F101080E9B013B4345F1DC534622
:1057B00004F15002DEE64FF0000804F11A09F2E7A6
:1057C00001234246DFE701234A4631462846B847CF
:1057D00001303FF43AAE08F10108E3680F995B1A13
:1057E0004345F0DCFBE64FF0000804F11909F4E74B
:1057F0002DE9F047164699468A680B690746934299
:10580000B8BF1346336091F843200C46DDF8208082
:105810000AB1013333602368990642BF336802330B
:105820003360256815F0060506D104F1190AE3680E
:1058300032689B1AAB422BDC94F84320131E22687B
:1058400018BF0123920630D44946384604F143027A
:10585000C047013023D02368226903F00603042BDC
:1058600014BF002533684FF0000608BFE56804F157
:105870001A0408BFED1A54F8123C08BF25EAE57572
:105880009342C4BF9B1AED18B5421AD1002008E01C
:105890000123524649463846C047013003D14FF0F4
:1058A000FF30BDE8F0870135C1E73020E11881F80D
:1058B00043005A1C94F845102244023382F84310E6
:1058C000C2E70123224649463846C0470130E6D0A8
:1058D0000136D9E72DE9FF470F7E9146782F8046A4
:1058E0000C469A460C9D01F1430207D8622F0AD854
:1058F000002F00F0D580582F00F0C18004F1420540
:1059000084F842703AE0A7F16303152BF6D801A1A1
:1059100051F823F06D59000881590008FD5800081E
:10592000FD580008FD580008FD580008815900087E
:10593000FD580008FD580008FD580008FD580008F3
:10594000875A0008AD590008415A0008FD58000860
:10595000FD580008A95A0008FD580008AD59000874
:10596000FD580008FD580008495A00082B681A1D08
:105970001B682A6004F1420584F842300123A0E04C
:1059800020682B68070603F10401296001D51E6811
:1059900003E04606FBD5B3F90060002E03DA2D23A1
:1059A000764284F843300A23594812E02B68206875
:1059B000191D2960050601D51E6802E04106FBD5C8
:1059C0001E886F2F0CBF08230A235148002184F83A
:1059D00043106568002DA8BF2168A560A4BF21F011
:1059E000040121600EB9002D4BD01546B6FBF3F132
:1059F00003FB1167C75D05F8017D3746BB420E46C4
:105A0000F4D9082B0BD12368DE0708D52369616818
:105A10009942DEBF302305F8013C05F1FF35521BEA
:105A200022614B4621464046CDF800A003AAFFF76D
:105A3000DFFE01304AD14FF0FF3004B0BDE8F087FF
:105A4000236843F0200323607827324884F84570A8
:105A5000236829681F0651F8046B02D45F0648BF0B
:105A6000B6B2DF0748BF43F02003296048BF236078
:105A70001EB9236823F0200323601023A6E72448DF
:105A8000E4E71546BDE72B682668181D61692860A4
:105A900035061B6801D5196002E07006FBD5198038
:105AA000002315462361BCE72B6800211A1D2A60DC
:105AB0001D686268284600F0C1F908B1401B6060AB
:105AC00063682361002384F84330AAE72A464946E5
:105AD00040462369D0470130ADD023689B0713D4DB
